:020000040000FA
:060000000A128A11F62F1E
:100ECC008B137108F9007008F8008B177908F7007C
:100EDC007808F60008000A128A118B270A128A1168
:100EEC00831203138910851209100911831203133D
:100EFC00881B812F822F7C2F0A128A11AD270A1290
:100F0C008A117C2F0A128A11002883160317880174
:100F1C0089018316031306148817081788160515FC
:100F2C00851505160814881408150615091189105D
:100F3C000910851286108230F700DD30F600F60BB2
:100F4C00A52FF70BA52FAA2F8B168B1708000A12AB
:100F5C008A1166270A128A117708F3007608F200C4
:100F6C00BB2F83120313091589100A128A116627E5
:100F7C000A128A1172087602FA007308031C730AAB
:100F8C007702FB0001307B02F43003197A02031C58
:100F9C00D02FD12FB72F0A128A1166270A128A1165
:100FAC007708F3007608F200DF2F83120313091180
:100FBC0089140A128A1166270A128A11720876029B
:100FCC00FA007308031C730A7702FB0000307B02E3
:100FDC00FA3003197A02031CF42FF52FDB2F0800CB
:100FEC00F001F101F201F301F401F50183010A12A0
:040FFC008A11712FB6
:04400E00F1ECFFFED4
:00000001FF
