:020000040000FA
:060000000A128A11F62F1E
:100F1A00F50108000330F6007608F4000800831291
:100F2A0003138614C630F6009A2F9B2FF60B992FBF
:100F3A009E2F00008312031386100D30F700FB303A
:100F4A00F600F60BA62FF70BA62FAB2F0800831679
:100F5A0003178801890183160313061488170817D3
:100F6A00881605158515051608148814081506151A
:100F7A00091189100910851286108230F700DD30B8
:100F8A00F600F60BC62FF70BC62FCB2F8B168B1737
:100F9A0008000A128A11AC270A128A118312031353
:100FAA0089108512091009110A128A118D270A124D
:100FBA008A110A128A118F270A128A1183120313BD
:100FCA00881BE82FE92FE32F051EEC2FED2FE32FC7
:100FDA000A128A1194270A128A11E32F0A128A1115
:100FEA000028F001F101F201F301F401F501830196
:060FFA000A128A11CE2F3D
:04400E00F1ECFFFED4
:00000001FF
