:020000040000FA
:060000000A128A110C280F
:10000800FE00030EF7000A08F8000A128A11A12957
:100018000A128A110F28F001F101F201F301F4012B
:10002800F501F60183120313A001A101A201A301A6
:1000380083010A128A1126298B28831203130519B2
:10004800262827282F2885192A282B282F280530E5
:10005800FA007A08F5000519322833283C28851D4E
:10006800362837283C280430FA007A08F5000911A8
:10007800051D3F284028A128851D43284428A1287C
:100088000330FA007A08F5000915A1288312031332
:1000980005194F285028A128851D53285428A12820
:1000A8000430FA007A08F500A12883120313051911
:1000B8005E285F2867288519622863286728053025
:1000C800FA007A08F500051D6A286B28A128851D05
:1000D8006E286F28A1280330FA007A08F500091560
:1000E800A1288312031305197A287B28A128851DC6
:1000F8007E287F28A1280430FA007A08F500091123
:10010800A1280A128A11A8210A128A11A1287508A1
:10011800FA00FB017B08003A0319932885287A081E
:10012800033A03197528073A03195928013A03199C
:100138004A28033A0319212885280800D32883125E
:1001480003130819A828A928AF280830FA007A0844
:10015800F4008512E6280930FA007A08F4008516BA
:10016800E62883120313081DBA28BB28E62809309D
:10017800FA007A08F4008516E62883120313081992
:10018800C628C728E6280830FA007A08F40085123D
:10019800E6280A128A11AD210A128A11E628740883
:1001A800FA00FB017B08003A0319DB28CD287A08FE
:1001B800073A0319A3280F3A0319B528013A031976
:1001C800C128CD2808001029881BEB28EC282529F0
:1001D800F601F60A06152529051AF328F428F72842
:1001E800F601061125290230A4002408F60006119C
:1001F80025290A128A117C210A128A1183120313F3
:10020800051A072908292529F60125290A128A111C
:10021800B2210A128A112529760883120313A40031
:10022800A5012508003A03191A290A292408003AC1
:100238000319E828013A0319F028033A0319FD289D
:100248000A2908000A128A1159210A128A118312EE
:10025800031389108512091009110A128A11B22193
:100268000A128A110A128A11A8210A128A110A127C
:100278008A1194210A128A117A0883120313A100A1
:100288007908A0000A128A11E7200A128A110A12B4
:100298008A1120200A128A110A128A11A2200A122F
:1002A8008A1146290A128A110C2883160317880115
:1002B80089018316031396160614881708178816DB
:1002C800851505150516081488140815061509114D
:1002D80089100910851286108230FA00DD30F90085
:1002E800F90B7429FA0B742979298B168B170800D6
:1002F800831203138614C630F90082298329F90B67
:100308008129862900008312031386100D30FA0014
:10031800FB30F900F90B8E29FA0B8E299329080076
:100328008B13710883120313A5007008A4008B17A0
:100338002508FA002408F900080078088A00770ED2
:100348008300FE0E7E0E09000630F9007908F500DC
:1003580008000730F9007908F5000800F6010800E0
:04400E00F1ECFFFED4
:00000001FF
