:020000040000FA
:060000000A128A110C280F
:10000800FE00030EF7000A08F8000A128A118F2969
:100018000A128A110F28F001F101F201F301F4012B
:10002800F501F60183120313A001A101A201A301A6
:1000380083010A128A1129298E28831203130519AC
:1000480026282728302885192A282B2830280530E3
:10005800FA007A08F50009110519332834283D28D3
:10006800851D372838283D280430FA007A08F5001D
:100078000911051D40284128A428851D4428452824
:10008800A4280330FA007A08F5000915A428831279
:100098000313051950285128A428851D54285528CC
:1000A800A4280430FA007A08F5000911A42883125C
:1000B80003130519602861286A28851964286528AA
:1000C8006A280530FA007A08F5000911051D6D281F
:1000D8006E28A428851D71287228A4280330FA00E8
:1000E8007A08F5000915A4288312031305197D2839
:1000F8007E28A428851D81288228A4280430FA0097
:100108007A08F5000911A4280A128A1196210A1200
:100118008A11A4287508FA00FB017B08003A031924
:10012800962888287A08033A03197828073A031981
:100138005B28013A03194B28033A03192128882818
:100148000800D62883120313081DAB28AC28B22850
:100158000830FA007A08F4008512E9280930FA0014
:100168007A08F4008516E928831203130819BD28B4
:10017800BE28E9280930FA007A08F4008516E9282B
:1001880083120313081DC928CA28E9280830FA0071
:100198007A08F4008512E9280A128A119B210A12AA
:1001A8008A11E9287408FA00FB017B08003A031950
:1001B800DE28D0287A08073A0319A6280F3A031927
:1001C800B828013A0319C428D02808001329881B25
:1001D800EE28EF282829F601F60A06152829051A17
:1001E800F628F728FA28F601061128290230A40073
:1001F8002408F600061128290A128A1177210A1202
:100208008A1183120313051A0A290B292829F601D2
:1002180028290A128A11A0210A128A112829760887
:1002280083120313A400A5012508003A03191D2908
:100238000D292408003A0319EB28013A0319F32879
:10024800033A031900290D2908000A128A115621B8
:100258000A128A11831203138910851209100911D1
:100268000A128A11A0210A128A110A128A119621E9
:100278000A128A110A128A119B210A128A110A1279
:100288008A11EA200A128A110A128A1120200A12F7
:100298008A110A128A11A5200A128A1143290A1200
:1002A8008A110C2883160317880189018316031302
:1002B8009616061488170817881685150515051645
:1002C8000815061509118910091085128610823043
:1002D800FA00DD30F900F90B6F29FA0B6F29742940
:1002E8008B168B170800831203138614C630F90087
:1002F8007D297E29F90B7C298129000083120313AB
:1003080086100D30FA00FB30F900F90B8929FA0B39
:1003180089298E29080078088A00770E8300FE0E46
:100328007E0E09000630F9007908F500080007304C
:0C033800F9007908F4000800F601080044
:04400E00F1ECFFFED4
:00000001FF
